:04000000E1EF1DF01F
:103BC200076A000EF86E000108EF1EF0FAEC1DF015
:103BD20026EC1EF0EEEC1DF01200600E0E01D36F0B
:103BE200000ED56F000ED76F050ED96F000ED86F7D
:103BF2001200000E0E01DC6F000EDD6F000EDE6F94
:103C0200000EDF6F000EE06F000EE16F1200E7ECB6
:103C12001DF0000E016EC40EB6EC1EF0010E016E18
:103C2200C30EB6EC1EF0000E016EC40E5BEC1FF06C
:103C3200010E016EC40E5BEC1FF0C30E4AEC1EF0C7
:103C4200076E14EF1EF000EF00F0000E826E000E01
:103C5200836E000E846E8768886889680F011C690C
:103C620014690C69000E286F000E136F000E0B6FA3
:103C7200000E1B6F000E0A6F000E126F000E1A6FFD
:103C8200096911691969086910691869080E256FAF
:103C92001200046E000E056E04380F0B0F0B036E3C
:103CA20004500F0B066E9BEF1EF006C001F08CCF86
:103CB20002F0012A5FEF1EF0D8900232012E5DEF72
:103CC2001EF002B067EF1EF069EF1EF06DEF1EF0FE
:103CD200000E056EB4EF1EF0010E056EB4EF1EF07D
:103CE20006C001F08DCF02F0012A7AEF1EF0D890C3
:103CF2000232012E78EF1EF002B082EF1EF084EF46
:103D02001EF06DEF1EF069EF1EF006C001F08ECFBF
:103D120002F0012A8FEF1EF0D8900232012E8DEFB1
:103D22001EF002B097EF1EF099EF1EF06DEF1EF03D
:103D320069EF1EF00350016E026A0250000AD8B405
:103D4200A5EF1EF0B4EF1EF001500A0AD8B456EFE8
:103D52001EF0010AD8B471EF1EF0070AD8B486EF3C
:103D62001EF0B4EF1EF005501200056E05380F0B61
:103D72000F0B046E05500F0B066E41EF1FF0015042
:103D8200D8A4C6EF1EF0C8EF1EF0DAEF1EF006C090
:103D920002F0010E036E022AD1EF1EF0D890033614
:103DA200022ECFEF1EF00350FF0A8714876E5AEFE0
:103DB2001FF006C002F0010E036E022AE3EF1EF0AE
:103DC200D8900336022EE1EF1EF003508710876E63
:103DD2005AEF1FF00150D8A4F1EF1EF0F3EF1EF0DE
:103DE20005EF1FF006C002F0010E036E022AFCEF7F
:103DF2001EF0D8900336022EFAEF1EF00350FF0A8F
:103E02008814886E5AEF1FF006C002F0010E036E8E
:103E1200022A0EEF1FF0D8900336022E0CEF1FF08D
:103E220003508810886E5AEF1FF00150D8A41CEF7F
:103E32001FF01EEF1FF030EF1FF006C002F0010E60
:103E4200036E022A27EF1FF0D8900336022E25EFC9
:103E52001FF00350FF0A8914896E5AEF1FF006C043
:103E620002F0010E036E022A39EF1FF0D8900336DA
:103E7200022E37EF1FF003508910896E5AEF1FF0A0
:103E82000450026E036A0350000AD8B44BEF1FF0CD
:103E92005AEF1FF002500A0AD8B4C0EF1EF0010A0E
:103EA200D8B4EBEF1EF0070AD8B416EF1FF05AEFA2
:103EB2001FF01200056E05380F0B0F0B046E055034
:103EC2000F0B066EE6EF1FF00150D8A46BEF1FF048
:103ED2006DEF1FF07FEF1FF006C002F0010E036EC0
:103EE200022A76EF1FF0D8900336022E74EF1FF0ED
:103EF2000350FF0A8214826EFFEF1FF006C002F029
:103F0200010E036E022A88EF1FF0D8900336022EAC
:103F120086EF1FF003508210826EFFEF1FF00150F8
:103F2200D8A496EF1FF098EF1FF0AAEF1FF006C07B
:103F320002F0010E036E022AA1EF1FF0D8900336A1
:103F4200022E9FEF1FF00350FF0A8314836EFFEFD0
:103F52001FF006C002F0010E036E022AB3EF1FF03B
:103F6200D8900336022EB1EF1FF003508310836EF8
:103F7200FFEF1FF00150D8A4C1EF1FF0C3EF1FF0F5
:103F8200D5EF1FF006C002F0010E036E022ACCEF3D
:103F92001FF0D8900336022ECAEF1FF00350FF0A1B
:103FA2008414846EFFEF1FF006C002F0010E036E50
:103FB200022ADEEF1FF0D8900336022EDCEF1FF04C
:103FC20003508410846EFFEF1FF00450026E036AE8
:103FD2000350000AD8B4F0EF1FF0FFEF1FF00250B9
:103FE2000A0AD8B465EF1FF0010AD8B490EF1FF0A7
:0E3FF200070AD8B4BBEF1FF0FFEF1FF012005C
:020000040020DA
:10000000FFFFFFFFFFFFFFFFFFFFFFFFFFFFFFFF00
:10001000FFFFFFFFFFFFFFFFFFFFFFFFFFFFFFFFF0
:10002000FFFFFFFFFFFFFFFFFFFFFFFFFFFFFFFFE0
:10003000FFFFFFFFFFFFFFFFFFFFFFFFFFFFFFFFD0
:10004000FFFFFFFFFFFFFFFFFFFFFFFFFFFFFFFFC0
:10005000FFFFFFFFFFFFFFFFFFFFFFFFFFFFFFFFB0
:10006000FFFFFFFFFFFFFFFFFFFFFFFFFFFFFFFFA0
:10007000FFFFFFFFFFFFFFFFFFFFFFFFFFFFFFFF90
:10008000FFFFFFFFFFFFFFFFFFFFFFFFFFFFFFFF80
:10009000FFFFFFFFFFFFFFFFFFFFFFFFFFFFFFFF70
:1000A000FFFFFFFFFFFFFFFFFFFFFFFFFFFFFFFF60
:1000B000FFFFFFFFFFFFFFFFFFFFFFFFFFFFFFFF50
:1000C000FFFFFFFFFFFFFFFFFFFFFFFFFFFFFFFF40
:1000D000FFFFFFFFFFFFFFFFFFFFFFFFFFFFFFFF30
:1000E000FFFFFFFFFFFFFFFFFFFFFFFFFFFFFFFF20
:1000F000FFFFFFFFFFFFFFFFFFFFFFFFFFFFFFFF10
:020000040030CA
:0C000000ECFFFFFF9FFFFFFFFFFFFFFF73
:00000001FF
