:04000000C8EF19F03C
:10334E008C0EAB6E000EAA6E000EA96EAD50FC0B6D
:10335E000109AD6E12008C0EA76E000EA66E000E49
:10336E00A56EAD50F30B0409AD6E1200800EA46E67
:10337E00000EA36E000EA26EAD50CF0B1009AD6EF7
:10338E001200206A1F6A1E6A1D6A1C6A1B6A000EE2
:10339E00F86E0001CFEF1EF0600E0E01D36F000E1F
:1033AE00D56F000ED76F050ED96F000ED86F1200B5
:1033BE00000E0E01DC6F000EDD6F000EDE6F000ED4
:1033CE00DF6F000EE06F000EE16F1200010EBE6E99
:1033DE00000EBD6E000EBF6EF90EBB6E000EBA6E05
:1033EE000E01C993E00EBC6E1200DFEC19F078EC02
:1033FE001AF0D3EC19F0A7EC19F0B2EC19F0BDEC01
:10340E0019F0EDEC19F01200FF0E0116030E021664
:10341E00ABA814EF1AF016EF1AF01DEF1AF0060E05
:10342E00D89001360236E82E17EF1AF00250AA6E27
:10343E0001C0A9FF1200FF0E0116030E0216A7A867
:10344E002BEF1AF02DEF1AF034EF1AF0060ED8907B
:10345E0001360236E82E2EEF1AF00250A66E01C08B
:10346E00A5FF120001C003F002C004F0D890043290
:10347E000332D890043203320350A36E01C003F01E
:10348E00030E0316060E046ED8900336042E4BEF71
:10349E001AF00350A26E1200000E056E000E046E9E
:1034AE00000E056E000E046E04C001F005C002F0A1
:1034BE000BEC1AF0340E036EF20EE82EFED7032E2E
:1034CE00FCD72C0E0426010E0522E70E045C030E1B
:1034DE000558D8A075EF1AF077EF1AF05BEF1AF0D7
:1034EE001200000E826E000E836E000E846E8768D0
:1034FE008868CB0E896E0F011C6914690C69000E69
:10350E00286F000E136F000E0B6F000E1B6F000E58
:10351E000A6F000E126F000E1A6F09691169196990
:10352E00086910691869080E256F050E0E01F66FF1
:10353E00060EF46F070EF76F1200000E096E000EE6
:10354E000A6E000E0B6E000E0C6E01A0B1EF1AF09B
:10355E00B3EF1AF0BBEF1AF00550092606500A22F7
:10356E0007500B2208500C22D89005360636073627
:10357E000836D89004320332023201320150021062
:10358E0003100410D8A4CEEF1AF0D0EF1AF0ACEF5F
:10359E001AF009C001F00AC002F00BC003F00CC013
:1035AE0004F01200000E086E000E076E000E086E7C
:1035BE00000E076E07C001F008C002F00BEC1AF007
:1035CE0007C001F008C002F022EC1AF007C001F0AB
:1035DE0008C002F039EC1AF0020E066E040E056EEB
:1035EE00BA0EE82EFED7052EFCD7062EFAD700D03F
:1035FE00640E0726000E0822E80E075C030E08581C
:10360E00D8A00CEF1BF00EEF1BF0E1EF1AF012003A
:10361E001DC001F01EC002F01FC003F020C004F058
:10362E002D0E056E7F0E066E950E076E4C0E086EF5
:10363E00A4EC1AF0010E01241D6E000E02201E6E67
:10364E00000E03201F6E000E0420206E1DC00FF012
:10365E001EC010F01FC011F020C012F0120E3DEF70
:10366E001BF0D8901232113210320F32E82E38EF92
:10367E001BF00FC00DF010C00EF01200030E026E04
:10368E00200E016E0BEC1AF0010E026E2C0E016E66
:10369E0022EC1AF0070E066E170E056E6A0EE82E55
:1036AE00FED7052EFCD7062EFAD700D0030E026EDB
:1036BE00840E016E39EC1AF0000E026E640E016E6D
:1036CE000BEC1AF0050E066E0F0E056EF10EE82EBF
:1036DE00FED7052EFCD7062EFAD700F0030E026E8B
:1036EE00840E016E22EC1AF01200030E026EE70E2B
:1036FE00016E22EC1AF0030E066E080E056E770EA2
:10370E00E82EFED7052EFCD7062EFAD700F0000EB7
:10371E00026E000E016E22EC1AF0030E086EE70E1A
:10372E00076E07C001F008C002F00BEC1AF007C0DC
:10373E0001F008C002F039EC1AF0020E066E040E0B
:10374E00056EBA0EE82EFED7052EFCD7062EFAD73A
:10375E0000D0960E075E000E085A085007E1980E2C
:10376E00075CD8B0BDEF1BF0BFEF1BF098EF1BF05E
:10377E001200000E086E000E076E000E086E000E90
:10378E00076E07C001F008C002F00BEC1AF0020E33
:10379E00066E040E056EBA0EE82EFED7052EFCD769
:1037AE00062EFAD700D02C0E0724016E010E08202B
:1037BE00026E22EC1AF0020E066E040E056EBA0EA2
:1037CE00E82EFED7052EFCD7062EFAD700D0C80E4F
:1037DE000724016E000E0820026E39EC1AF09C0EC2
:1037EE00056ED70EE82EFED7052EFCD700F0640E20
:1037FE000726000E0822F40E075C010E0858D8A00A
:10380E000BEF1CF00DEF1CF0C8EF1BF01200030EB7
:10381E00086EE70E076E030E086EE70E076E07C002
:10382E0001F008C002F039EC1AF01B50D8A422EFB8
:10383E001CF024EF1CF034EF1CF0030E026EE70EAA
:10384E00016E22EC1AF0000E026E000E016E0BECF1
:10385E001AF0010E1B6E42EF1CF0000E026E000EEF
:10386E00016E22EC1AF0030E026EE70E016E0BECE7
:10387E001AF0000E1B6E020E066E040E056EBA0EC8
:10388E00E82EFED7052EFCD7062EFAD700D0960EC0
:10389E00075E000E085A085007E1980E075CD8B074
:1038AE005BEF1CF05DEF1CF016EF1CF01200000E2B
:1038BE00076E000E076E030E026E200E016E0BECED
:1038CE001AF0070E066E170E056E6A0EE82EFED75C
:1038DE00052EFCD7062EFAD700D0000E026E000E73
:1038EE00016E0BEC1AF0010E026E2C0E016E22EC24
:1038FE001AF0070E066E170E056E6A0EE82EFED72C
:10390E00052EFCD7062EFAD700D0000E026E000E42
:10391E00016E22EC1AF0030E026E840E016E39EC6B
:10392E001AF0070E066E170E056E6A0EE82EFED7FB
:10393E00052EFCD7062EFAD700D0000E026E000E12
:10394E00016E39EC1AF0072A020E0764B1EF1CF073
:10395E00B3EF1CF062EF1CF01200000E076E000EAB
:10396E00076E000E026E000E016E0BEC1AF0030EC7
:10397E00026EE70E016E22EC1AF0030E026EE70ED7
:10398E00016E39EC1AF0030E096EE70E086E08C0D0
:10399E0001F009C002F022EC1AF008C001F009C0D3
:1039AE0002F039EC1AF0020E066E040E056EBA0E17
:1039BE00E82EFED7052EFCD7062EFAD700D0960E8F
:1039CE00085E000E095A095007E1980E085CD8B03F
:1039DE00F3EF1CF0F5EF1CF0CEEF1CF0020E066EAE
:1039EE00040E056EBA0EE82EFED7052EFCD7062E57
:1039FE00FAD700D0072A020E076408EF1DF00AEF6F
:103A0E001DF0B8EF1CF01200000E186E14BE14EF6D
:103A1E001DF012EF1DF01AEF1DF0136C141ED8B02E
:103A2E00142A010E186E16BE21EF1DF01FEF1DF0A9
:103A3E0025EF1DF0156C161ED8B0162A155016104F
:103A4E00D8B42CEF1DF02EEF1DF052EF1DF0010E2D
:103A5E00176E36EF1DF0D89015361636172A16AE9D
:103A6E003BEF1DF03DEF1DF032EF1DF01550135CD6
:103A7E0016501458D8A046EF1DF048EF1DF04CEF2D
:103A8E001DF01550135E1650145AD890163215327A
:103A9E00172E3DEF1DF01850D8B458EF1DF05AEF09
:103AAE001DF05EEF1DF0136C141ED8B0142A13C057
:103ABE0013F014C014F01200000E066E000E056E08
:103ACE00000E066E000E056E030E026EE70E016E00
:103ADE000BEC1AF0030E046E080E036E770EE82E32
:103AEE00FED7032EFCD7042EFAD700F0000E026E7E
:103AFE00000E016E0BEC1AF0030E046E080E036E30
:103B0E00770EE82EFED7032EFCD7042EFAD700F040
:103B1E00030E026EE70E016E0BEC1AF0030E046E2E
:103B2E00080E036E770EE82EFED7032EFCD7042E5A
:103B3E00FAD700F0000E026E000E016E0BEC1AF0BA
:103B4E00030E046E080E036E770EE82EFED7032EBC
:103B5E00FCD7042EFAD700F0030E026EE70E016EAC
:103B6E000BEC1AF0030E046E080E036E770EE82EA1
:103B7E00FED7032EFCD7042EFAD700F0054A062AEC
:103B8E0006BED3EF1DF0065009E1030E055CD8A06A
:103B9E00D3EF1DF0D5EF1DF06BEF1DF01200030EED
:103BAE00086EE70E076E030E086EE70E076E07C06F
:103BBE0001F008C002F00BEC1AF0020E066E040EB5
:103BCE00056EBA0EE82EFED7052EFCD7062EFAD7B6
:103BDE0000D0960E075E000E085A085007E1980EA8
:103BEE00075CD8B0FDEF1DF0FFEF1DF0DEEF1DF00E
:103BFE00000E086E000E076E07C001F008C002F03E
:103C0E0022EC1AF0020E066E040E056EBA0EE82EA7
:103C1E00FED7052EFCD7062EFAD700D0960E072615
:103C2E00000E0822E70E075C030E0858D8A022EFFC
:103C3E001EF024EF1EF003EF1EF0030E086EE70ECB
:103C4E00076E07C001F008C002F039EC1AF0020E40
:103C5E00066E040E056EBA0EE82EFED7052EFCD7A4
:103C6E00062EFAD700D0960E075E000E085A0850A0
:103C7E0007E1980E075CD8B047EF1EF049EF1EF033
:103C8E0028EF1EF01200000E086E000E076E000EDA
:103C9E00086E000E076E030E026EE70E016E0BEC41
:103CAE001AF0030E066E080E056E770EE82EFED77E
:103CBE00052EFCD7062EFAD700F0030E026EE70E85
:103CCE00016E22EC1AF0030E066E080E056E770ECC
:103CDE00E82EFED7052EFCD7062EFAD700F0030EDF
:103CEE00026EE70E016E39EC1AF0030E066E080E28
:103CFE00056E770EE82EFED7052EFCD7062EFAD7C8
:103D0E0000F0030E026EE70E016E39EC1AF0030E90
:103D1E00066E080E056E770EE82EFED7052EFCD722
:103D2E00062EFAD700F0030E026EE70E016E22EC9D
:103D3E001AF0030E066E080E056E770EE82EFED7ED
:103D4E00052EFCD7062EFAD700F0030E026EE70EF4
:103D5E00016E0BEC1AF0030E066E080E056E770E52
:103D6E00E82EFED7052EFCD7062EFAD700F0074A0E
:103D7E00082A08BECCEF1EF0085009E1030E075CBE
:103D8E00D8A0CCEF1EF0CEEF1EF052EF1EF01200B8
:103D9E00FCEC19F0000E016EC20E5BEC1FF0000E73
:103DAE00016EC40E5BEC1FF0000E016EC50E5BECD7
:103DBE001FF00FEC1BF00DC013F00EC014F0000E30
:103DCE00166E0B0E156E0BEC1DF013501C6E20EFC5
:103DDE001FF0D9EC1AF0E0EF1EF045EC1BF0E0EF0F
:103DEE001EF05EEC1CF0E0EF1EF0C0EC1BF0E0EFFE
:103DFE001EF0D6EC1DF0E0EF1EF00EEC1CF0E0EF26
:103E0E001EF063EC1DF0E0EF1EF07CEC1BF0E0EF1B
:103E1E001EF04AEC1EF0E0EF1EF0B4EC1CF0E0EFEA
:103E2E001EF053EC1AF0E0EF1EF0000E1C6EE0EFE9
:103E3E001EF01C50196E1A6A1A50000AD8B42AEFD6
:103E4E001FF01CEF1FF01950000AD8B4F0EF1EF04F
:103E5E00010AD8B4F4EF1EF0030AD8B4F8EF1EF03E
:103E6E00010AD8B4FCEF1EF0070AD8B400EF1FF019
:103E7E00010AD8B404EF1FF0030AD8B408EF1FF0FC
:103E8E00010AD8B40CEF1FF00F0AD8B410EF1FF0D0
:103E9E00010AD8B414EF1FF0030AD8B418EF1FF0BC
:103EAE001CEF1FF000EF00F0056E05380F0B0F0B27
:103EBE00046E05500F0B066EE6EF1FF00150D8A4EE
:103ECE006BEF1FF06DEF1FF07FEF1FF006C002F0DB
:103EDE00010E036E022A76EF1FF0D8900336022EE3
:103EEE0074EF1FF00350FF0A8714876EFFEF1FF069
:103EFE0006C002F0010E036E022A88EF1FF0D89062
:103F0E000336022E86EF1FF003508710876EFFEFE9
:103F1E001FF00150D8A496EF1FF098EF1FF0AAEFF4
:103F2E001FF006C002F0010E036E022AA1EF1FF071
:103F3E00D8900336022E9FEF1FF00350FF0A88140D
:103F4E00886EFFEF1FF006C002F0010E036E022A0C
:103F5E00B3EF1FF0D8900336022EB1EF1FF00350CF
:103F6E008810886EFFEF1FF00150D8A4C1EF1FF02C
:103F7E00C3EF1FF0D5EF1FF006C002F0010E036E67
:103F8E00022ACCEF1FF0D8900336022ECAEF1FF094
:103F9E000350FF0A8914896EFFEF1FF006C002F06E
:103FAE00010E036E022ADEEF1FF0D8900336022EAA
:103FBE00DCEF1FF003508910896EFFEF1FF00450E5
:103FCE00026E036A0350000AD8B4F0EF1FF0FFEF41
:103FDE001FF002500A0AD8B465EF1FF0010AD8B4D8
:103FEE0090EF1FF0070AD8B4BBEF1FF0FFEF1FF0E2
:023FFE001200AF
:020000040020DA
:10000000FFFFFFFFFFFFFFFFFFFFFFFFFFFFFFFF00
:10001000FFFFFFFFFFFFFFFFFFFFFFFFFFFFFFFFF0
:10002000FFFFFFFFFFFFFFFFFFFFFFFFFFFFFFFFE0
:10003000FFFFFFFFFFFFFFFFFFFFFFFFFFFFFFFFD0
:10004000FFFFFFFFFFFFFFFFFFFFFFFFFFFFFFFFC0
:10005000FFFFFFFFFFFFFFFFFFFFFFFFFFFFFFFFB0
:10006000FFFFFFFFFFFFFFFFFFFFFFFFFFFFFFFFA0
:10007000FFFFFFFFFFFFFFFFFFFFFFFFFFFFFFFF90
:10008000FFFFFFFFFFFFFFFFFFFFFFFFFFFFFFFF80
:10009000FFFFFFFFFFFFFFFFFFFFFFFFFFFFFFFF70
:1000A000FFFFFFFFFFFFFFFFFFFFFFFFFFFFFFFF60
:1000B000FFFFFFFFFFFFFFFFFFFFFFFFFFFFFFFF50
:1000C000FFFFFFFFFFFFFFFFFFFFFFFFFFFFFFFF40
:1000D000FFFFFFFFFFFFFFFFFFFFFFFFFFFFFFFF30
:1000E000FFFFFFFFFFFFFFFFFFFFFFFFFFFFFFFF20
:1000F000FFFFFFFFFFFFFFFFFFFFFFFFFFFFFFFF10
:020000040030CA
:0C000000ECFFFFFF9FFFFFFFFFFFFFFF73
:00000001FF
